:10200000008000205166000039660000396600003B
:1020100000000000000000000000000000000000C0
:102020000000000000000000000000003966000011
:10203000000000000000000039660000A5660000F6
:102040003966000039660000396600003966000014
:102050003966000039660000396600003D66000000
:10206000396600003966000039660000CD43000083
:10207000BD43000039660000AD4300003966000032
:1020800039660000396600003966000039660000D4
:102090000000000039660000396600003966000063
:1020A00039660000396600003966000039660000B4
:1020B0000000000010B5064C2378002B07D1054B1B
:1020C000002B02D0044800E000BF0123237010BDA4
:1020D000D40000200000000090880000044B10B5E0
:1020E000002B03D00349044800E000BF10BDC046E8
:1020F00000000000D80000209088000010B50848BB
:1021000000F010FF074A0C21074800F0C5FB0D2125
:10211000064800F011FC0B21054800F00DFC10BD35
:102120000C0100202C010020F800002024010020D8
:10213000F000002070B5154C05000100144A200085
:1021400000F002FD00281CD01249200004F054F8D1
:102150001149200004F050F82900200004F04CF848
:102160000E4D2000290004F047F80D49200004F02E
:1021700043F82900200004F03FF8200000F0FAFEA8
:1021800070BD0849084804F05BF8F9E70C0100202D
:10219000B1220000457200005C720000597200001C
:1021A00063720000777200006C09002010B5040013
:1021B000094800F089FB00280DD00849084804F0C0
:1021C0003FF8084800F0C4FB074B1B78002B02D1F6
:1021D0002000FFF7AFFF10BDF800002024720000C0
:1021E0006C090020F00000202D010020064810B5E9
:1021F0000378002B02D000F077F910BD034B18686C
:10220000FFF7D4FFF9E7C0460800002004000020D3
:10221000962110B5064C8901200002F005FB200034
:1022200002F052FC0028FAD000F0EEFA10BDC046D1
:102230006C090020002070477047000037B50D4C36
:102240000D49200003F0D8FF0C4D280000F01FFCC2
:102250000100200003F0F4FF2900684600F00EFCA6
:102260000749200003F0C8FF6946200003F0F2FF91
:1022700037BDC0466C090020C972000078010020FB
:10228000D07200000023F0B5334C85B00B7007000E
:102290003249200003F0D4FF3149200003F0D0FF81
:1022A000304901A804F063F82F4D01A8290004F07B
:1022B00028F92E4904F032F92D4904F022F92D496C
:1022C00004F02CF92C4E310004F01BF92B4904F0DA
:1022D00025F92B4B197804F03AF903682949002BAA
:1022E00000D12949200003F0ABFF01A803F0F0FF63
:1022F000002F17D0254F3B68032B29D024492000FD
:1023000003F07AFF2900200003F090FF184A336899
:10231000126829681F4800F0A9FB38601E4804F0C5
:1023200005FAE7E7194F3B68032B11D01B49200042
:1023300003F062FF2900200003F078FF326829686B
:10234000144800F0B8FB3860134804F0EFF9E9E7EF
:10235000FFF774FF05B0F0BD6C090020D3810000C9
:102360000D820000C97200004C0100203082000084
:10237000580100203C8200004001002048820000FB
:102380003C010020C8810000CD81000074010020C4
:102390005682000078010020102700008A82000089
:1023A00010B590B004001E4901A804F03BF81D4987
:1023B00004A804F037F81C4907A804F033F81B49B7
:1023C0000DA803F0D4FF01A90DA804F09AF818494C
:1023D00004F0A4F804A904F094F8164904F09EF857
:1023E00007A904F08EF8144904F098F801000AA82F
:1023F00004F018F80DA803F06BFF0AA9200003F001
:10240000F4FE0AA803F064FF07A803F061FF04A824
:1024100003F05EFF01A803F05BFF10B010BDC046E3
:102420004C0100205801002040010020DD72000016
:10243000547F0000957F0000D67F0000F0B50E00AD
:1024400085B00500110030001F00140004F0D0F822
:10245000431C06D10E49280003F089FF280005B06F
:10246000F0BDA468390004192200300004F0B0F86F
:102470000300421CEED02200310001A804F0BEF897
:1024800001A9280003F0B4FF01A803F021FFE5E74C
:102490005B72000010B5040086B0104903F0D0FE56
:1024A0000F49200003F0CCFE200003F0B7FE6A467F
:1024B000636868460193A3680293E3680393094B3A
:1024C0000093237C1374638A5382237D1375FFF773
:1024D00067FF200003F0A2FE06B010BDA27200004C
:1024E000B27200006C83000070B58F4E98B005008A
:1024F000300000F0D0FA8D4C2368984203D03000B1
:1025000000F0C9FA20600CA80022894900F0AAFD59
:102510000CA800F012FB002800D1E6E085496846CF
:1025200003F025FF8449854803F08AFE0CA800F0DB
:102530003FFD002800D1CEE00CA800F089FC002867
:10254000F4D00CA800F090FCC1B20A2900D0E3E05E
:102550007B4912A803F00BFF12A9684604F02CF87F
:10256000040012A803F0B4FE002C66D0694603A84C
:1025700003F058FF734906A803F0F9FE724C09A84E
:10258000210003F0F4FE09AB06AA03A912A8FFF785
:1025900055FF12A96D4803F04FFF12A803F098FEF3
:1025A00009A803F095FE06A803F092FE03A803F025
:1025B0008FFE694603A803F035FF654906A803F0BE
:1025C000D6FE210009A803F0D2FE09AB06AA03A992
:1025D00012A8FFF733FF12A95E4803F02DFF12A8DF
:1025E00003F076FE09A803F073FE06A803F070FE60
:1025F00003A803F06DFE694603A803F013FF5649D4
:1026000006A803F0B4FE554909A803F0B0FE09ABD3
:1026100006AA03A912A8FFF711FF12A9504803F058
:102620000BFF12A803F054FE09A803F051FE06A800
:1026300003F04EFE03A803F04BFE4A4912A803F034
:1026400096FE12A9684603F0B7FF040012A803F033
:102650003FFE002C29D0694606A803F0E3FE42495C
:1026600009A803F084FE3D4912A803F080FE12ABD6
:1026700009AA06A903A8FFF7E1FE12A803F028FEA5
:1026800009A803F025FE06A803F022FE374903A897
:1026900003F068FF431E9841354BC0B22900187003
:1026A000FFF7F0FD03A803F013FE029B12AC002B12
:1026B0001ED10D9A0CAB62600E9A2000A2600F9A98
:1026C000E2602C4A12921A7C22745A8A62821B7D22
:1026D0002375FFF7DFFE2849184803F0B1FD0CA869
:1026E00000F048FC684603F0F3FD012018B070BD0F
:1026F0006946200003F096FE0A21200003F01CFF2B
:1027000001001E4803F0CCFE200003F0E1FD094962
:10271000684603F099FE09E70D2900D106E76846EF
:1027200003F0D9FE02E7C0467801002074010020C2
:10273000640100205B7200006A8100006C090020C7
:102740007B81000082810000888100004C01002014
:102750008A810000580100209481000068810000F7
:10276000400100209E810000A5810000B181000091
:102770003C0100206C830000B48100003001002087
:10278000F8B55021174800F061FC174E174F310083
:10279000380003F0ECFD164D164C2A0021003800DD
:1027A00004F000FB144F3100380003F0E0FD2A0074
:1027B0002100380004F0F6FA104F3100380003F021
:1027C000D6FD2A002100380004F0ECFA0C4E0D4929
:1027D000300003F0CCFD2A003000210004F0E2FAC2
:1027E000F8BDC046640100205B720000300100208B
:1027F00000000020D16200004C01002058010020A0
:10280000400100209672000070B5174C1749200057
:1028100003F016FD1649200003F012FD15492000B3
:1028200003F0EAFC144D2000290003F009FD134ACF
:102830002900134800F0CCF8124B1860072804D088
:102840001149200003F0FCFCFEE7104803F06EFF86
:102850000F4C200000F0D8FBFFF7F0FC0D492000E2
:1028600003F0EEFC70BDC0466C090020B38200008E
:10287000D7820000EF820000140000200900002031
:1028800078010020740100200D83000088130000EF
:10289000640100202A830000322310B583600023E6
:1028A0000400C360016142600360C8B2022104F009
:1028B0003BF9200010BD006910B5C0B204F0ACF9BE
:1028C00043425841C0B210BD70B5040003F0F8FE99
:1028D000E368C01AA368984202D80025280070BD9A
:1028E0002000FFF7E8FF23689842F6D0206003F04D
:1028F000E7FE6668E0602000002E09D0FFF7DBFFEE
:10290000051EEAD00123626811784B401370E5E799
:10291000FFF7D1FF051E054803D0054903F090FCE1
:10292000DBE7044903F08CFCD8E7C0466C090020C3
:102930002F8300003E830000002310B504000160D7
:102940004360C8B2012104F0EFF8200010BD000080
:1029500010B504000368FF21D8B204F031F9014B2F
:10296000636010BD00007F4370B5060003F0A8FE51
:102970000024050003F0A4FE3368401B984207D2F0
:10298000642003F0D3FE01F0C9F904000228F1D954
:10299000200070BDF0B5070085B0080016000D00DE
:1029A000039304F0C3FB0400300004F0BFFB039A60
:1029B000C3B20092E1B23200280001F0B3FA030082
:1029C0000920013302D03800FFF7CEFF05B0F0BD7B
:1029D00010B50123FFF7DEFF10BDF0B58DB00890F4
:1029E000080016001F000C0004F0A0FB0990300046
:1029F00004F09CFB0A90380004F098FB0B901298AE
:102A000004F094FB0500139804F090FB24226B461D
:102A10009B181A78139B2C210593129B013003936A
:102A20006B4680B2EDB2069004955B181B780439B2
:102A300002936B4601975B181B78210000930020DE
:102A4000330001F0B9FA03000420013302D00898E2
:102A5000FFF78AFF0DB0F0BD13B5034C0194049C41
:102A60000094FFF7BAFF16BD5B72000013B5024C6D
:102A70000094FFF7F1FF16BD5B72000010B5040073
:102A800003F0D0FA200001F073F9200010BD10B55A
:102A900001F082F910BD10B501F040F910BD10B57C
:102AA0000800110001F032FA10BD436810B5002B88
:102AB00000D0984710BDF8B5050008000E001700BB
:102AC00004F034FB0400380004F030FBE1B2C3B280
:102AD0003A00300001F0DEF80424431C14D003F067
:102AE000EFFD0024060003F0EBFD2B68801B9842ED
:102AF0000AD22800FFF7D9FF642003F017FE01F087
:102B00000DF904000228EED92000F8BD0022024B86
:102B1000024906C37047C0467801002050C3000038
:102B200013B56B460268D971073354681900012246
:102B3000A04716BD017570477047007CFF38431EE3
:102B40009841C0B27047000070B50E0086B0040016
:102B500002A8150003F066FA02AA31000848FFF740
:102B60009EFF00280AD0074A23680492039ADB6973
:102B70000192059204A92A002000984706B070BD72
:102B8000780100202C88000070B5037C04000D0043
:102B90001600FF2B02D003689B6A984700F07AFD6D
:102BA00002002074FF281ED068680023310000F066
:102BB0006BFB03F085FD050023682000DB6A984766
:102BC000002809D103F07CFD0A4B401B984203D832
:102BD000012003F0ABFDEFE723682000DB6A984794
:102BE000431E984170BD0449044803F029FB0020AE
:102BF000F8E7C0460F2700004E8300006C09002054
:102C000070B5037C04000D001600FF2B02D0036892
:102C10009B6A984700F03EFD02002074FF281ED0FA
:102C200068680223310000F02FFB03F049FD050026
:102C300023682000DB6A9847002809D103F040FD93
:102C40000A4B401B984203D8012003F06FFDEFE7C9
:102C500023682000DB6A9847431E984170BD0449F1
:102C6000044803F0EDFA0020F8E7C0460F27000003
:102C70004E8300006C09002070B5037C04000D0039
:102C80001600FF2B02D003689B6A984700F002FDF4
:102C900002002074FF281ED068680423310000F071
:102CA000F3FA03F00DFD050023682000DB6A984766
:102CB000002809D103F004FD0A4B401B984203D8B9
:102CC000012003F033FDEFE723682000DB6A98471B
:102CD000431E984170BD0449044803F0B1FA002036
:102CE000F8E7C0460F2700004E8300006C09002063
:102CF000F7B5037C04000E001700FF2B02D0036819
:102D00009B6A984700F0C6FC05002074FF2825D078
:102D1000300004F00BFA0223C1B2019300953B008E
:102D20000022300000F0F2FA03F0CAFC050023682C
:102D30002000DB6A9847002809D103F0C1FC0A4B48
:102D4000401B984203D8012003F0F0FCEFE7236812
:102D50002000DB6A9847431E9841FEBD03490448A2
:102D600003F06EFA0020F8E70F2700004E83000002
:102D70006C090020F7B5037C04000E001700FF2B40
:102D800002D003689B6A984700F084FC0500207419
:102D9000FF2825D0300004F0C9F90423C1B2019303
:102DA00000953B000022300000F0B0FA03F088FCF0
:102DB000050023682000DB6A9847002809D103F04A
:102DC0007FFC0A4B401B984203D8012003F0AEFC65
:102DD000EFE723682000DB6A9847431E9841FEBD59
:102DE0000349044803F02CFA0020F8E70F270000FD
:102DF0004E8300006C090020F8B50500007C0E0031
:102E00001400FF2804D1012300246B602000F8BDCA
:102E1000002AF8D092B200F0AFFB002815D12B7D2C
:102E2000002B03D1287C00F0C5FAECE72B682200C8
:102E30005F6C310001232800B847041EF2D0287CC3
:102E400000F0DCFB0028DED0E0E70400F7E700003C
:102E500010B5017C0020FF2902D0024800F06CF977
:102E600010BDC04680010020036837B51B6904000F
:102E70009847002809D06B46DD1D217C01232A00DC
:102E8000034800F095F928783EBD01204042FBE759
:102E90008001002010B50C001300017C22000248C4
:102EA00000F086F910BDC0468001002010B5017CFD
:102EB000014800F06DF910BD8001002007B5002326
:102EC0006A4601931380007C01A900F09FFE6B46C7
:102ED0006A461B7850781B02C01880B20EBD13B52D
:102EE00000236A46040001931380087C01A900F0C6
:102EF0008DFE01A9200003F0ABF8200016BDF8B547
:102F000005000E001700002B0AD00524BAB2287C59
:102F1000310000F031FB002803D1013C002CF5D139
:102F20000020F8BD00234360FA239B008360044B1C
:102F300008330360FF230374FE3B03757047C046EC
:102F40006483000000234360FA239B008360034BEB
:102F50000174083303600123037570476483000024
:102F600010B5037C0020FF2B02D0180000F056FAA9
:102F700010BD000070B50400007CFF2814D000F0E4
:102F800019FA32252000FFF7EBFF002806D0013D9B
:102F9000002D03D0642003F0C9FBF3E7217C034834
:102FA00000F0B0F8FF23237470BDC04680010020FC
:102FB00070B5037C04000025FF2B05D003681B6956
:102FC0009847A84202D00125280070BD2000FFF7D5
:102FD000C7FF0A28F7D8054BC340DB07F3D5217C90
:102FE000034800F08FF8FF232374EDE7EF0400009F
:102FF0008001002013B56B460268D971073354680D
:1030000019000122A04716BD10B5040000F042FBD4
:1030100001002072FF2803D06089002200F0F6F83A
:1030200010BD70B50500002A04D1012300246B6097
:10303000200070BD92B2007A00F09EFA041EF4D017
:10304000287A00F0DBFA0028EFD0F1E7044B418149
:103050000833036000234360013B03817047C0468F
:10306000C0830000F0B50B7A89B004000D00160093
:10307000FF2B38D0497AFF290FD002A8FFF762FF53
:1030800002A8FFF795FF002807D002A8FFF7E0FE8F
:10309000002802D0687AFF2804D1287A00F0F4F9D9
:1030A000FF2820D0C7B2390002A8FFF74BFF002E3F
:1030B00003D002A8FFF754FF3070039B6F72636068
:1030C000049BA360059B0193E360094B236002AB63
:1030D0001B7C237402AB5B8A638202AB1B7D23756E
:1030E000200009B0F0BDFF212000FFF72BFFF7E71C
:1030F0006C83000010B504007822002103F03FFF2C
:10310000200010BD10B50C244C4304192068002881
:1031100005D003F021FF002363602360A36010BD8E
:1031200070B505000024210028000134FFF7EAFFF4
:103130000A2CF8D1280070BDF7B50C244C430419B3
:10314000A36805000E00002B1AD12768002F05D1B7
:103150000E4803F0F7FEA760606020606B469F1D7D
:103160000A4BF0B23A0021683B8000F0C9F9002810
:1031700006D023683A8863600C237343EB189A6087
:103180000C235E43AD19A868FEBDC046DC050000F7
:1031900070B504000D00FFF7CFFF002805D00C210B
:1031A000694364186368187870BD01204042FBE7EA
:1031B000F8B506000C0017001D00FFF7BDFF002842
:1031C00011D0854200DD05000C235C4334192A0030
:1031D0006168380003F0CAFE280063685B19636009
:1031E000A3685B1BA360F8BD10B5054C2000FFF77A
:1031F00081FF044A0449200003F0D4FD10BDC046FD
:103200008001002000000020213100007FB56B46C6
:10321000DD1D9C1D1B4B06001B7829702270002BA6
:1032200001D100F087FA002000F05EFA00F0DAFA2F
:103230000321282000F088FC3000002100F072FCFF
:1032400028000022012100F041FB01222000110092
:1032500000F03CFB00F01AFB00F0ECFA002000F05C
:1032600043FA00F0BFFA0E220F2300216A446B4498
:10327000117019702820013100F050FB00F0DAFACB
:103280007FBDC046F90100207FB50E0069468C1C49
:1032900023701D4BCD1C1B7801902A70002B01D18F
:1032A00000F048FA002000F01FFA00F09BFA042119
:1032B0002D2000F049FC002201A8042100F006FBAB
:1032C0003000002100F02EFC28000022012100F037
:1032D000FDFA01222000110000F0F8FA00F0AAFA2D
:1032E000002000F001FA00F07DFA0E220F230021E9
:1032F0006A446B44117019702D20013100F00EFBEF
:1033000000F098FA7FBDC046F9010020F0B51C001E
:10331000274B85B01B7806000D000192002B01D1D0
:1033200000F008FA002000F0DFF900F05BFA052158
:103330002D2000F009FC30000022290000F0C6FA20
:103340000022042101A800F0C1FA0021200000F0B1
:10335000E9FB002201210AA800F0B8FA01220BAE15
:103360001100300000F0B2FA03272C0011343C4069
:103370000135002C02D000F089FAF6E700F05AFA85
:103380003078043843425841C0B200F0ADF900F043
:1033900029FA0E220F236A446B4401212D20147058
:1033A0001C7000F0BBFA00F045FA05B0F0BDC04655
:1033B000F90100201FB56B46DC1D174B20701B78F0
:1033C000002B01D100F0B6F9002000F08DF900F0DB
:1033D00009FA01212E2000F0B7FB01222000110084
:1033E00000F074FA00F052FA00F050FA00F022FAFD
:1033F000002000F079F900F0F5F90E220F230021EA
:103400006A446B44117019702E20013100F086FA65
:1034100000F010FA1FBDC046F90100201FB56B4631
:10342000DC1D184B20701B78002B01D100F082F9B5
:10343000002000F059F900F0D5F901212F2000F00B
:1034400083FB01222000110000F040FA00F01EFA78
:1034500000F01CFA00F0EEF9002000F045F90E240F
:1034600000F0C0F90F2300226C446B441A702270E4
:10347000012122002F2000F051FA00F0DBF9207822
:1034800004B010BDF90100201FB56B46DC1D207093
:1034900000F048F9FF2300282DD0184B1B78002B93
:1034A00001D100F047F9002000F01EF900F09AF970
:1034B00001212B2000F048FB01222000110000F028
:1034C00005FA00F0E3F900F0E1F900F0B3F90020AB
:1034D00000F00AF90E2400F085F90D2300226B4458
:1034E0006C441A702280012122002B2000F016FA71
:1034F00000F0A0F92378180004B010BDF9010020F5
:1035000073B56B46DD1D0E001400287000F00AF93B
:10351000002801D1208076BD164B1B78002B01D1ED
:1035200000F008F9002000F0DFF800F05BF902215C
:10353000452000F009FB00220121280000F0DDFAFF
:1035400001220221200000F0D8FA00F09FF900F0DB
:1035500071F9002000F0C8F800F044F922003100B1
:10356000452000F098FA00F065F92088431E984144
:10357000C0B2D0E7F90100207FB56B46DC1D1E4BC1
:103580000E001B7815002070002B01D100F0D2F83E
:10359000002000F0A9F800F025F90221442000F0F5
:1035A000D3FA00220121200000F0A7FA3000012206
:1035B000290000F0A2FA03262C000934344001351A
:1035C000002C02D000F062F9F6E700F033F90E2586
:1035D000200000F089F800F005F90D226D446A44DE
:1035E0002900442014702C8000F0CCF900F022F95E
:1035F000288804B070BDC046F9010020F0B50E2542
:1036000085B00F2700246B4601266D446F44D871A6
:103610002C703C701E4B1B78002B01D100F08AF8F7
:10362000002000F061F800F0DDF831002A2000F001
:103630008BFA6B4632003100D81D00F047F900F0DC
:1036400025F900F023F900F0F5F8002000F04CF81F
:1036500000F0C8F83B002A0031002A2000F05EF993
:1036600000F0E8F82B78002B0FD101346420A4B2CD
:1036700003F05CF82B78002B01D1182CCAD9193C27
:10368000601E8441E0B205B0F0BD0024F2E7C04600
:10369000F9010020134B13B51B78002B01D100F06A
:1036A00049F8002000F020F800F09CF800213F20AD
:1036B00000F04AFA00F0BEF8002000F015F800F023
:1036C00091F86B469C1DFF2323706B460022073345
:1036D0001A70012122003F2000F020F900F0AAF822
:1036E000207816BDF901002070B5050002F0E8FF52
:1036F0000400094B187803F08FFA00280BD0002D36
:10370000F7D002F0DDFF054B001B9842F1D80448CA
:10371000FFF7CBF9EDE770BD290000200F2700006F
:103720007801002010B51A2003F076FA431E984164
:1037300010BD0000F8B51823234E244F3370244CDD
:1037400004333B70013B237000F01CFE214D1A280E
:1037500004D801232B702378DB43237030780121B8
:1037600003F0E2F93878002103F0DEF92078012136
:1037700003F0DAF901211A2003F0D6F901211A2009
:1037800003F01EFA3078012103F01AFA2978207824
:1037900003F016FA0A2002F0C9FF297801252078E3
:1037A000694003F00DFA0C4802F0C0FF00211A2016
:1037B00003F006FA00211A2003F0B6F9074800F0DA
:1037C00051FD074B1D70F8BD2B0000202900002083
:1037D0002A000020F8010020EE020000480200202C
:1037E000F901002013B500246B466A461C710123C1
:1037F0005371019A0B490C4800F05CFD0B4B210002
:10380000187803F0DDF902F05BFF0400084B18782C
:1038100003F002FA012804D002F052FF001B042832
:10382000F4D913BD00127A00480200202B000020BA
:103830002900002010B5044B0121187803F0C0F9CD
:10384000024800F0B7FC10BD2B0000204802002009
:1038500007B56B46D871D9790248C9B200F033FC7C
:103860000EBDC0464802002010B50400FF20FFF73F
:10387000EFFF207010BD70B50C0005000800FFF7C9
:10388000F3FF2078401B4342584170BD13B56B468F
:10389000DC1D002320002370FFF7E6FF207816BD13
:1038A00070B50500084CFFF7F1FFEF2808D0013C88
:1038B000002C01D0A842F6D1401B4342584170BDB4
:1038C00001204042FBE7C046E9030000F8B50500CF
:1038D00008000E0017002C00FFF7BAFF631B9E4282
:1038E00004DD2078FFF7B4FF0134F7E7012F02D1A0
:1038F000EE20FFF7ADFFF8BD10B50400000AFFF79A
:10390000A7FFE0B2FFF7A4FF10BD10B50400FF2031
:10391000FFF79EFF002C00D0207010BDF0B585B0E1
:103920001F0002ABDC1D00230500E0200191160002
:103930002370FFF7B5FF002802D1002005B0F0BDCD
:103940002000FFF791FF802223781543AB42F4D18A
:103950002000FFF789FF2378019A9342EDD13800C8
:10396000FFF7D3FF35003A78AB1B9A4204DD2800FD
:10397000FFF77AFF0135F6E72100EE20FFF77BFF26
:103980000120DBE7F7B56B46DC1D00230500E020D6
:103990000E0017002370FFF783FF002801D10020DD
:1039A000FEBD2000FFF760FF802223781543AB4265
:1039B000F5D1FFF76BFF00280DD03800FFF7A5FF0A
:1039C00035003A78AB1B9A4205DDFF20FFF740FF38
:1039D00028700135F5E72100EE20FFF74CFF0120AC
:1039E000DEE7F0B587B004ABDE1D00230500E02064
:1039F000039114003370FFF753FF002802D1002019
:103A000007B0F0BD3000FFF72FFF80223378154359
:103A1000AB42F4D1FFF73AFF01900028EFD0052325
:103A20004343E3180293029B9C421AD0FF20FFF706
:103A30000FFF002720702378BB4210DDA378657844
:103A40001B022B43E578FF202D042B4325792D06FF
:103A50001D43FFF7FDFEED1928700137EBE7053434
:103A6000E1E7019B039A9342C9D13100EE20FFF7B1
:103A700002FF0120C4E770B50500FF20FFF7E8FE54
:103A80000400FF20FFF7E4FE2402204380B2002D53
:103A900000D0288070BDF0B5002485B002AB0700CF
:103AA000DD1DE020019116002C70FFF7F9FEA04209
:103AB00002D1002005B0F0BD2800FFF7D5FE80221E
:103AC0002B781743BB42F4D1FFF7E0FE00280ED05D
:103AD0003000FFF7D0FF3388A34208D9019BFF20B5
:103AE0001F19FFF7B5FE01343870A4B2F3E72900BF
:103AF000EE20FFF7C0FE0120DCE770B504000D00EA
:103B000008001600FFF7F8FE6519AC4204D02078D3
:103B1000FFF79EFE0134F8E7012E02D1EE20FFF7F9
:103B200097FE70BD70B5040002200D00FFF790FEF7
:103B3000200AFFF78DFEE0B2FFF78AFE012D02D1C9
:103B4000EE20FFF785FE70BD70B50400E0200D008B
:103B5000FFF77EFE7F202040FFF77AFE2800FFF768
:103B600077FE002D02D1EE20FFF772FE70BD00003F
:103B700070B586B0050014000E000B22002102A8CB
:103B800003F0FDF909232A0A6B441D705A702A0CB0
:103B90002D0E9A70DD700E236B441E80360C5E80F5
:103BA0001323220A6B441C705A70220C240E9A7044
:103BB000DC70154B1B78002B01D1FFF7BBFD0020FB
:103BC000FFF792FDFFF70EFE21200121FFF7BCFF5A
:103BD0006B460122D81DFF2311000370FFF776FE0C
:103BE000FFF754FEFFF752FEFFF724FE0020FFF719
:103BF0007BFDFFF7F7FD02AA03212120FFF7F1FE6D
:103C0000FFF718FE06B070BDF901002070B586B050
:103C10006B46DE1D0C00150030700622002103A843
:103C200003F0ADF90D23220A6B441C705A70220C6C
:103C3000240E9A70DC7012236B441D802D0C5D8065
:103C4000134B1B78002B01D1FFF774FD0020FFF709
:103C50004BFDFFF7C7FD01213A20FFF775FF012259
:103C600030001100FFF732FEFFF710FEFFF70EFEE7
:103C7000FFF7E0FD0020FFF737FDFFF7B3FD03AAD4
:103C800002213A20FFF7ADFEFFF7D4FD06B070BD6C
:103C9000F9010020F7B51D001F4B07001B780C0031
:103CA0001600002B01D1FFF745FD0020FFF71CFD9A
:103CB000FFF798FD02211120FFF746FF21000022A7
:103CC0003800FFF703FE300001222900FFF7FEFD58
:103CD0000326063464192500354003D0FFF7D6FDCE
:103CE0000134F8E7FFF7A6FD2800FFF7FDFCFFF71A
:103CF00079FD6B469C1D22000733012111202570A0
:103D00001D70FFF70BFE002801D1FF232370FFF782
:103D100091FD00202056FEBDF9010020134B13B584
:103D20001B78002B01D1FFF705FD0020FFF7DCFC1D
:103D3000FFF758FD00212020FFF706FFFFF77AFD6F
:103D40000020FFF7D1FCFFF74DFD6B469C1DFF23C4
:103D500023706B46002207331A70012122002020B5
:103D6000FFF7DCFDFFF766FD207816BDF9010020A6
:103D700070B50500054C064A20000649FFF7F8FE1D
:103D80002800210002F070F970BDC0462202002018
:103D9000FA010020FE0100201A4B13B51B78002BFE
:103DA00001D1FFF7C7FC0020FFF79EFCFFF71AFDCB
:103DB00023200121FFF7C8FE6B460122981DFF2337
:103DC00011000370FFF782FDFFF760FDFFF75EFD56
:103DD000FFF730FD0020FFF787FCFFF703FD0A4CDB
:103DE00020220021200003F0CAF86B46002207338E
:103DF0001A70012122002320FFF790FDFFF71AFD22
:103E0000200016BDF901002002020020204B73B5EE
:103E10001B780400002B01D1FFF78CFC0020FFF77A
:103E200063FCFFF7DFFC01213420FFF78DFE20004B
:103E300003F07CF90122C1B22000FFF747FD20000A
:103E400003F074F90326441D2500354003D0FFF725
:103E50001DFD0134F8E7FFF7EDFC2800FFF744FCF7
:103E6000FFF7C0FC6B469E1D9D7132000733012198
:103E700034201D70FFF752FDC4B2FFF7DBFC002CAD
:103E800004D03478013C60424441E4B2200076BD65
:103E9000F9010020FF2130B587B00B00050000912B
:103EA0000A0004A802F0C6F8174B1B78002B01D1BA
:103EB000FFF740FC0020FFF717FCFFF793FC002101
:103EC0003520FFF741FEFFF7B5FC0020FFF70CFCA3
:103ED000FFF788FC0B2300226B441A70012103AA10
:103EE0003520FFF71BFD041E08D003A9280002F0AF
:103EF000BBF8059B6C68E41A631E9C41FFF79AFCB3
:103F0000200007B030BDC046F901002010B50C00FC
:103F1000FFF77CFF03000020834202D02000FFF760
:103F2000B9FF10BDF7B51E00224B07001B780D002E
:103F30001400002B01D1FFF7FDFB0020FFF7D4FB9D
:103F4000FFF750FC03211920FFF7FEFD0022290096
:103F50003800FFF7BBFC310020000022FFF7B6FC61
:103F6000012208A811002C1DA419FFF7AFFC03269D
:103F70002500354003D0FFF789FC0134F8E7FFF74F
:103F800059FC2800FFF7B0FBFFF72CFC6B469C1D8B
:103F9000220007330121192025701D70FFF7BEFC98
:103FA000002801D1FF232370FFF744FC0020205696
:103FB000FEBDC046F9010020F0B587B002930CABFE
:103FC0001E780EAB1F7810AB1B780191009312ABDB
:103FD0001C8802ABD8712E4B15001B78002B01D129
:103FE000FFF7A8FB0020FFF77FFBFFF7FBFB062195
:103FF0004020FFF7A9FD02ABD81D00220121FFF7E9
:104000007CFDA9B200220198FFF777FDB1B2002232
:104010000298FFF772FDB9B200220D98FFF76DFD0F
:104020006B46002219880F98FFF767FD21000122D7
:104030001198FFF762FD009B1034E418E419A419ED
:10404000651903242E00264003D0FFF71FFC01351D
:10405000F8E70E24FFF7EEFB3000FFF745FBFFF714
:10406000C1FB02ABE4180F2302AA9B180121220016
:10407000402026701E70FFF751FC002801D1FF235D
:104080002370FFF7D7FB0020205607B0F0BDC046D5
:10409000F901002070B506000C008D18AC4207D065
:1040A000336821789B683000984720700134F5E729
:1040B00070BD7047704710B50400406800F094FA76
:1040C0000023237610BD10B5406800F0B2FA10BD91
:1040D000F8B5050040680C0000F0A6FA2B68E7B2BE
:1040E000260A9B68012810D139002800FF2798472D
:1040F0002B68BC4304439B683100280098470302A7
:1041000020003840184380B2F8BD3100280098479D
:10411000FF262B680002344004439B6839002800C6
:104120009847B4432043EEE710B5040002F084FB47
:10413000200010BD10B54B1C0BD0102909D0EFF397
:10414000108472B6102905DD02234376002C00D1BD
:1041500062B610BD0123427E1A43427618224A43BA
:104160000449891816228A569340C2691343C361D1
:10417000ECE7C0461C8400004B1C17D0102915D05A
:10418000437E9B0712D4EFF3108272B618234B4381
:104190000749C9180123897D49B28B40C1699943F8
:1041A000C16100D14176002A00D162B67047C04695
:1041B0001C840000437E002B05D09A0704D5837E23
:1041C000002B00D062B67047DB07FCD5C369024AFA
:1041D0009BB2D360F7E7C04600180040037E002B77
:1041E00004D143768376C3610133037670470000C0
:1041F0007FB5036902AE04000D00029172608B422C
:1042000003D1828AB3889A4226D020000622310048
:10421000103002F0ABFE606800F0FDF97379E17ACE
:10422000013B581E8341227B00936068002300F00D
:1042300097FA33790021013BDBB2022B01D8074A00
:10424000D15C074B2A009D4200D91A00606800F03B
:10425000B3F9606800F0D5F97FBDC046DC8300008B
:10426000001BB70070B518260400FFF7B7FF330036
:104270000821207A0D4D4343EB18595602F0E4FC17
:1042800033000821A07A4343EB18595602F0DCFCB6
:104290000821607A4643AD19695602F0D5FC044BFB
:1042A000200006CBFFF7A4FF70BDC0461C840000B1
:1042B0006802002007B5437E00910192002B07D0D1
:1042C0009A070AD5EFF310835A425341837672B6A8
:1042D0000099019AFFF78CFF07BDDB07F8D5C3698A
:1042E000014A9BB29360F3E700180040F7B5002441
:1042F0000125194B194A5D711A601C71184B194838
:10430000083301930360184B184F4360184B194E44
:1043100003810D233A0031004575046104758372F1
:104320000A3B0476C472037302F03CFD1248134B3F
:10433000019A4360124B45750381192331000260D5
:1043400004613A0004758372163B05730476C372E8
:1043500002F028FDF7BDC0466802002000093D00BC
:10436000E083000028020020440900200000002013
:104370000C0B0000B5400000480200204C09002052
:10438000171600002120704710B501211A2002F0F5
:10439000CBFB01211A2002F013FC01211B2002F0AB
:1043A000C3FB00211B2002F00BFC10BD10B502481E
:1043B00001F05BFD10BDC0467002002010B5024840
:1043C00001F053FD10BDC046B404002010B50248F2
:1043D00001F04BFD10BDC046F8060020F0B51F49A6
:1043E00085B01F4800F058F81E491F4800F054F8E7
:1043F0001E4D1F49280000F04FF81E4E1E49300088
:1044000000F04AF81D491E4800F046F81D4F1E49AD
:10441000380000F041F8012403233900009301948F
:1044200023000022194801F099FC00233100019378
:1044300000941D331E22164801F090FC19230393AB
:10444000013B0293163B0193009414331722290079
:10445000104801F03FFC05B0F0BDC0460008004226
:104460003C090020000C0042440900204C090020B7
:1044700000100042540900200014004200180042BD
:104480005C09002064090020001C0042700200202A
:10449000B4040020F8060020002303710160704777
:1044A0009446F0B59E1E721E9641624605689207BC
:1044B0002F6836063A4332432A60072505AC247834
:1044C0000068A4012940214342680024022B00D047
:1044D0005C03114321434160F0BD30B5C025036842
:1044E000AD031C6812052A402243C0240904A4021B
:1044F00021401143196003685A6814435C6030BD61
:104500000123026811680B43136003681A68D2071D
:10451000FCD4DA69D207F9D4704702230268116823
:104520000B4313600268D3699B07FCD47047026891
:10453000137E9B0702D40379002BF9D1002303716A
:104540007047002203685A8370470368187E40074B
:10455000C00F70470368187EC00970478023026847
:104560005B42117E0B43137670470368588B8007BC
:10457000C00F704702230268518B0B43538370476F
:104580000368187EC007C00F70470368188DC0B25B
:10459000704703681A7ED207FCD589B219850123BA
:1045A000037118007047012203689A757047012251
:1045B00003681A757047000070B5012604684B083F
:1045C00033403140256809075B070B432B432360C9
:1045D00004685100034802F0F7FB0138C0B22073B1
:1045E00070BDC046006CDC020123026811680B43F9
:1045F000136003681A68D207FCD4DA69D207F9D4C9
:1046000070470223026811680B4313600268D36984
:104610009B07FCD470470368DA699207FCD4022137
:104620001A688A431A607047036818684000C00F10
:1046300070470268936A5B0A5B02194391620368E0
:104640001A7E5207FCD5986AC0B270470368214AA7
:1046500030B593422FD0204A93422FD01F4A934225
:104660002FD01F4A93422FD01E4A93422FD01E4A6A
:1046700093421FD10E2319220121032599401B4883
:10468000C024016099082B40AB40FC359D40890057
:104690000918A4000859A843C0259D402B000343D6
:1046A0000B518023DB011A43114B5A805A7852B2C6
:1046B000002AFBDB30BD09231422DDE70A23152283
:1046C000DAE70B231622D7E70C231722D4E70D23B2
:1046D0001822D1E700080042000C004200100042FE
:1046E0000014004200180042001C004200E100E0FB
:1046F000000C0040F8B504000F0016001D00FFF785
:10470000A5FF2000FFF7FCFE1C21BB000B4071073A
:104710002268090C0B431360842322689375012FD0
:104720001AD11021012E00D008390C4B69431868AA
:10473000C00002F049FB0722216802408B89520326
:10474000DB04DB0C13438B81226803049089DB0CB0
:10475000400B400318439081F8BDC0463C00002048
:10476000F7B50600019308AB1F780D001400FFF7A2
:104770003BFF3000FFF76AFFC0222405920314407C
:10478000BA070C2717433C43C0270722BF022D045A
:1047900033683D4025431D60019B316813401A007A
:1047A00080239B0213434B60F7BD0020704770B518
:1047B0000F26CB1D013902003240D5B22C00000972
:1047C0003034092A00DD07341C70013B8B42F2D1E2
:1047D00070BD000010B50C000B4B1868FFF7E7FF29
:1047E00021000A4B08311868FFF7E1FF2100084B50
:1047F00010311868FFF7DBFF2100064B18311868ED
:10480000FFF7D5FF202010BD0CA0800040A0800045
:1048100044A0800048A0800008B4024B9C46103899
:1048200008BC6047D5470000704770473F2070477D
:1048300013B56B460268D971073354681900012219
:10484000A04716BD70B50A260B7892B06E440233AD
:1048500005000B703C220021300002F090FB39482B
:1048600001AC06903848242107900620207768463E
:10487000364AA1742281364A364BA281FD3AFF3A6C
:104880008018C177684623390630C17768460730FB
:10489000C17702A8C1770720F2770326083169445F
:1048A000C87703A9CE7710212B366E4431700926C4
:1048B00021851F3169440E700CA9053E0E7033210D
:1048C0002380022369440B7006360DA90E7022491D
:1048D0003536A1863B216E44307010A86274E277B1
:1048E00002703D3269446A440B701370402100220B
:1048F000E37023716371A37341336B442187197093
:104900005A702B7DC039A370A37263770133DBB279
:10491000A3776A7D0B200D0068441543C5773120CD
:10492000684403703A23501C6B44187041230232D0
:104930000A436B441A7021004222084800F0FEFC32
:1049400012B070BD10010424020605240904000001
:1049500001020000080B000007050000C809002044
:1049600008B4024B9C46103808BC6047454800001C
:1049700070B5027D0B790C0000259A420BD10B78A3
:104980004E78A12B09D1212E05D107221B491C48A5
:1049900000F0D4FC0135280070BD212BFBD1202E66
:1049A00022D107221549164800F00AFC9622134B23
:1049B000D200196891421DD1DB79DB071AD4FA20A5
:1049C00002F0A2F900210E4800F0C0FD0125232EBF
:1049D000E1D1E378A2781B0213430A4A0021084878
:1049E000136000F0B3FDD6E7222EEFD18A78034B97
:1049F000DA71DBE702F092F9E4E7C046300000200C
:104A0000C80900202C00002008B4024B9C46103836
:104A100008BC60477149000010B508220021024817
:104A200002F0ADFA10BDC0463000002010B5417D47
:104A3000006A013100F0FCFA034B1B6801335A1E77
:104A40009341181810BDC0463800002010B5417DB4
:104A5000006A023100F002FB10BD10B5417D006A12
:104A6000023100F0C9FA10BD70B50D00417D04009F
:104A7000130002312A00006A00F0B6FB002801D1C1
:104A80000123636070BD000010B5054C23685A1CFB
:104A900004D103685B69984703002060180010BDCB
:104AA00038000020074A0300106810B5411C03D0ED
:104AB00001235B42136010BD597D186A013100F07B
:104AC00043FBF8E73800002010B501F0F9FDF423AE
:104AD000FF330024984207D9044B0A20DC79631E77
:104AE0009C41E4B201F022FE200010BD3000002005
:104AF0000020704770477047FA239B0010B5836011
:104B00000F4B0022C3820300283383610D4B040046
:104B10004260C2611800503323610830631D216276
:104B20002060DA778323A362813BE36280332363CF
:104B300001F020FB2100103101F0EDFA200010BD42
:104B40000302000034870000022110B5094B1A68E7
:104B5000437D5B01D318FF339C7A21439972437DD7
:104B60000133DBB25B01D3180122FF33997A0A4388
:104B70009A7210BD800E002010B502490248FFF75E
:104B8000BBFF10BDC80900206C090020704710B59C
:104B9000040001F051FE200010BD0000F0B5822994
:104BA00019D1C3B2294D5A01AA189169284C800124
:104BB0000C40C021890521439161264908334018E2
:104BC0007021506128685B011A5C8A431100302211
:104BD0000A431A54F0BD0029FCD1C026C1B21B4CB7
:104BE0004B01E3189A681A4DB6052A4032439A6081
:104BF000194A800182185A600A000727246808327F
:104C00005201115DB9430F000121394311559F69CC
:104C100010493D4040182E439E6158617020115D3F
:104C20008143080010210143115599680B48A218CF
:104C3000084080214903014399609968890B8903E1
:104C40009960402311790B431371C3E7800E002054
:104C5000FFFFFF8FF4090020B40B0020FF3F00F09E
:104C6000EFF3108303600123436072B6704703685B
:104C7000002B02D162B6BFF36F8F704773B5836D9F
:104C80000400002B1BD10600A83635786846FFF7D4
:104C9000E7FF019BEDB2013B02D33578EDB2FAE7B5
:104CA00068460193FFF7E3FF002D01D1002076BD98
:104CB0002300A4331868A0342368C01AF7E76846B5
:104CC000FFF7CEFF22000025019BF432013B02D307
:104CD0001578EDB2FAE768460193FFF7C8FF002D9B
:104CE000E4D02300F0331868EC34E5E710B5436DE9
:104CF0004468DBB25A01A218916809480833084099
:104D0000802149030143916091685B01890B89030C
:104D100091602268D318402219790A431A7110BD94
:104D2000FF3F00F0F7B5436D4268DBB219000400A5
:104D30000831106849014118C979C90711D55B01CB
:104D4000D21893689B049B0C0CD12000FFF7CEFF78
:104D500063681A68636DDBB208335B01D3187F2286
:104D6000DA71F7BDE16D002923D12100A4310B6078
:104D700023000125AC33E56568465360FFF770FFFB
:104D8000260020002100019BA836013BF430F531BC
:104D90005A1C33D0357002785F1ED2B20A700A787E
:104DA000002A04D120000193FFF7A0FFE8E73B00B1
:104DB000EEE72100F0310B600023E3652300603350
:104DC00053606846FFF74CFF0125260020002100B4
:104DD000019BF436013BA830F5315A1C0ED03570DA
:104DE00002785F1ED2B20A700A78002A04D120002D
:104DF0000193FFF77BFFE8E73B00EEE7684601938E
:104E0000FFF735FFA4E737B56B46DC1D00230D0027
:104E1000237001F0AFF9210001F03AF92B6818185E
:104E2000286020783EBD00000078002810D00121C5
:104E3000084B1B681A898A431A810822198B0A4376
:104E40001A830422198B0A431A830022024B1A6028
:104E50007047C046800E0020780E002010B50F4A23
:104E600093699B0B9B03936113680222FF331A72B1
:104E70009879823A02439A711A7A9207FCD57F2474
:104E8000074A2140937A0800A34319008023014375
:104E90009172917A5B420B43937210BD800E002099
:104EA0000050004110B50C0001F064F9210001F040
:104EB00022F9002804D1034A93699B0B9B03936159
:104EC00010BDC046800E0020F8B50D00832A19D110
:104ED000CBB23B4C5A01A21891693A48AD01084047
:104EE000C021890501439161374920686D187021FF
:104EF000083355615B011A5C8A43110040220A4362
:104F00001A54F8BD022A55D1304A8B00985800280F
:104F100002D003685B699847F82001F089FC04001F
:104F2000274E2B4B4660036040220021083002F0E0
:104F300026F822000023A032A3646565E36423659C
:104F4000A365E3655360D3641372136013654C3239
:104F500013725372FF222B00134059017118886895
:104F6000184F08330740C0208005384388603068F8
:104F700007265B01195CAD00B1430E0003213143EC
:104F800019542300616D6068114049014118603374
:104F90004B60616D63680A401B6852019B180122D7
:104FA000FF33997A20000A439A72FFF79FFE074B5E
:104FB0005C51A6E711002800FFF7F0FDA1E7C0460D
:104FC000800E0020FFFFFF8FF4090020CC09002095
:104FD0009C87000070B505000124064BA200D25842
:104FE000002A06D0210028000134FFF76DFF0A2CAB
:104FF000F3D170BDA00900200B4BCAB20B48890148
:10500000C9185301C318596199690832890B89037A
:105010009961036852019A180223D3715179823B36
:105020000B4353717047C046F4090020800E0020E6
:10503000084B8A00D05810B5002803D003689B683D
:10504000984710BDC9B2044B4901591888688004BB
:10505000800CF6E7CC090020800E002010B50C0073
:10506000FFF7E6FF00280CD0064BE4B21B680834BB
:1050700064011C19802362795B421343637102232C
:10508000E37110BD800E0020F0B51C002A4B85B0E6
:105090001B6807000D000292002B4AD0274B8A00A4
:1050A000D058002808D0036822005B68029998470E
:1050B0000400200005B0F0BD3800FFF7B9FF8442BE
:1050C00004D929003800FFF7B3FF04000121EBB237
:1050D0001B4E03935B010193F21893689B0B9B0398
:1050E0009360019A336802989B18FF335A7A0A43F7
:1050F0005A72144BA901C918220001F037FF002C85
:10510000D7D029003800FFF793FF0028D1D14021E4
:10511000039B326808335B01D31818790143197176
:105120000121D971019BD318FF339A7A0A439A72ED
:10513000BFE701246442BCE7780E0020CC090020C0
:10514000800E0020B40B002013B56B46DC1D22003E
:105150000123FFF799FF012801D1207816BD012016
:105160004042FBE770B5CBB2124A13485C0189019B
:105170008918021951609168104D08330D40802143
:1051800049032943402591609168890B8903916007
:1051900001685A018A1816793543157195796D069B
:1051A000FCD55B01C918CB79DB07FCD500198068F9
:1051B000C0B270BDB40B0020800E0020FF3F00F095
:1051C00070B50D0000211400FFF7CCFFA04200D9FC
:1051D000200000230349A34203D0CA5CEA540133F0
:1051E000F9E770BDB40B0020F0B51E003A4B85B056
:1051F0001B680F000192002B35D08023DB019E42FB
:1052000031D80025354B8A01D3180293002E2CD0BB
:10521000334B1B680393FF233B401C00009308346F
:10522000039B64011C19A379DB0921D02D4B2E4966
:10523000186801F0C9FD2D4B1721584301F0C4FD3A
:105240002B4BE279920713D4DA5D002A01D10138A1
:10525000F7D20122DA55009B5A01214B9B189A691B
:10526000920B92039A6101256D42280005B0F0BDB2
:1052700000221F4B3400DA553F2E09D9009B4024F1
:105280005A01174B9B188022996912060A439A61AA
:1052900022000199029801F069FE009BA1045A01C5
:1052A0000F4B890C9B18029A2D195A619A69361B6B
:1052B000920B92030A439A61009B039A08335B01A5
:1052C000D3180222DA715979823A0A435A71019B42
:1052D0001B1901939AE7C046780E0020F4090020BC
:1052E000800E00203C00002040420F0070110100A1
:1052F000E909002070B50D001C000D4BAE01F61839
:1053000011003000220001F031FEEDB209496D01BB
:105310004D196E61AB69084A20001340AB61AB695F
:10532000A2049B0B920C9B031343AB6170BDC04660
:10533000F4090020800E0020FF3F00F0F7B5104B6D
:1053400001901B780F001500002B0CD10D4B16009F
:105350001C78002C09D00C4E0C4834882018641995
:1053600001F004FE34802800FEBD002EFBD03A1967
:10537000330000210198FFF7BDFF2418361AF4E727
:10538000740D0020750E0020760E0020750D002093
:10539000F8B50F0016000024012A26D9100001F0EC
:1053A000D1FD0500380001F0C1FE032302220130C7
:1053B000400028706B7096420DD9397800290AD0C8
:1053C000531CDBB20137A9549E4203D00232EC5485
:1053D000D2B2F0E7320029000548FFF7AFFF441EC4
:1053E000A041C4B2280001F0B7FD2000F8BDC046BE
:1053F000C8090020F0B50024012685B0184B0F0025
:1054000069461E7005000094FFF7FDFC154B01A9CD
:105410000B806A3BFF3BCB715A330B72009B8C7144
:1054200009334B800E4B4E7108711C703A00092FE6
:105430000FD00D4F09223E700C4E2800009434808E
:10544000FFF77CFF69462800FFF7DDFC328808493A
:105450003C702800FFF772FF012005B0F0BDC04688
:10546000740D002009020000750E0020760E002049
:10547000750D002070B5CE7892B005000C00022E9C
:105480000BD18B79C9792C4809021943FFF7B2FF78
:10549000411E8841C0B212B070BD00F06BFE210009
:1054A00000F00AFE002803D0C117081AC00FF2E767
:1054B000012E0ED1E279A37912021A431F49112A53
:1054C00013D8D2B2002A10D02800FFF737FF0120EE
:1054D000E1E7032EDFD1A378002B08D1E279A3798D
:1054E00012021A431649032AEBD90A78ECE7022B79
:1054F00008D1E279A379120212491A432800FFF772
:1055000047FFC8E7012B05D1E279A37912021A43BC
:105510000D49F3E7032BBED14122010001A801F0A0
:105520002EFD00F027FE01A900F0D6FDE279A37957
:1055300012021A4301A9E1E7C8090020DC87000034
:10554000CC870000B8870000D0870000CBB20449A8
:105550005B01C9188B699B0B9B038B617047C0462D
:10556000800E002037B5050048780C000B2810D8B5
:1055700001F020FC061B0F2B0F404561494C5A5D82
:10558000097801AA002906D1022311802800FFF71B
:10559000B1FE01203EBD00231380284B1B78012B58
:1055A00000D1137002230021F0E78A780023012A3A
:1055B00003D101AA1380224BF0E7204A1370214A3D
:1055C00093699B0B9B039361E3E78C78012C06D1D5
:1055D00000211B4B01AA1C7011702300D6E701208B
:1055E000002CD7D1154B174A187093699B0B9B035E
:1055F0009361CFE789782800FFF730FCC9E72800DE
:10560000FFF738FFC6E701230F4ACCE70B780020ED
:10561000DB06BFD12800FFF7DDFCA2780A4B0B4860
:105620001A60FFF791FACAE70123094ABBE78A78B3
:10563000074B1A60C3E70020ACE7C046E80900202A
:10564000F0090020800E0020780E00206C09002058
:105650007C0E00203A4BF7B51E780500002E5FD176
:10566000384C23689A8B12070DD5082231009A8393
:105670003000FFF793FA10222368FF33997A0A4328
:105680009A72314B1E6023689A8B520701D504220F
:105690009A83FF331A7A920603D52022597A0A4355
:1056A0005A721A7AD20623D569460800274AC0CA18
:1056B000C0C0A268920B9203A260402258790243B4
:1056C0005A7160230A7828001A422AD1FFF74AFF4C
:1056D0002368FF33002827D08022997952420A4359
:1056E0009A711A7A520603D54022597A0A435A729D
:1056F0007F2601252368FF331E722F002368083799
:105700007F01DB19DB79002B07D0114BAA00D058A1
:1057100000280DD003681B6898470135082DECD18F
:10572000F7BDFFF7BFFBD3E720210A4A9171D8E705
:1057300029000948FFF7DFF92368DF19FE71ECE75C
:10574000750E0020800E0020780E0020B40B002083
:10575000CC090020FF5000416C09002010B5024820
:10576000FFF778FF10BDC046C809002080235B000A
:1057700003800023436007330372704783000148AE
:10578000C0187047A0090020836C402B09D03F222D
:10579000036CC154036C013313400364836C013305
:1057A00083647047F7B505006846FFF759FA00268D
:1057B0004022019B013B02D32E6D961BFAE76846FF
:1057C0000193FFF754FAAB6D6846002B4FD1FFF7FA
:1057D00047FA2900019BA831013B5A1C0CD00C78D8
:1057E0005A1EE4B2002C05D168460193FFF73FFA38
:1057F0002000FEBD1300F0E7684601930024FFF788
:1058000036FA2A002900A0321368A431B4420ED01F
:10581000086898420BD92800591CEB1811606033B6
:1058200019780830C9B2FFF7AFFF0134E9E709681A
:105830009942DDD1002313600133AB656846FFF761
:105840000FFA2F002A000021019BA837013BF532F7
:10585000581CC9D0397010785E1E002805D0117010
:1058600028000193FFF742FAEBE73300F0E7FFF778
:10587000F7F92900019BF431013B5A1C06D00C7842
:105880005A1EE4B2002CAFD01300F6E7684601932D
:105890000024FFF7ECF92A002900EC321368F031FC
:1058A000B44202D0086898421DD8096899429FD135
:1058B000002368461360AB65FFF7D2F92F002A007A
:1058C0000021019BF437013BF532581C00D18BE7D6
:1058D000397010785E1E002811D0117028000193D5
:1058E000FFF704FAEAE72800591CEB181160AC3303
:1058F00019780830C9B2FFF747FF0134CBE733000E
:10590000E3E710B50400FFF74DFF206D10BD10B5A3
:105910000400FFF747FF236D002B03D0E36CE4186E
:10592000207A10BD01204042FBE7F7B517000E00BA
:105930000400FFF737FF6846FFF792F93F22002582
:105940009446019B013B5A1C19D0BD4215D2226DD1
:10595000002A12D00121226D4942002A0AD0604655
:10596000E26CA218117AE26C01320240E264226D0C
:10597000013A226571550135E7E7013BE3E76846E7
:105980000193FFF774F92800FEBD0000014B024AA5
:105990001A607047800E0020005000412023F7B5A8
:1059A000474A0500D1690F200B43D36101224549C5
:1059B0000B7813430B70444B1978814319700621FF
:1059C0001C782143197041490C7822430A701A78D7
:1059D00002401A70602219780A431A703C4B3D4A03
:1059E0005A805F78FF09FCD13B4800F063FE012339
:1059F0003A4C3B4E2268300011780B4313708022E2
:105A00003900520001F0BBFA22689378DB07FCD41E
:105A100056621F26334B1B68590B980C9B01314073
:105A200030405B0FB14200D105211F2800D1023860
:105A3000072B00D1043B31408901178D01912A4980
:105A400030400F40019939431185118D0700B14352
:105A5000080038431085118D1803244B7F260B4016
:105A600003430C2013850823D17881430B43032182
:105A7000D3702268D3788B4301390B43D3702268EB
:105A8000137833401370042322681678334313705D
:105A90002268C1241389A400834315481381035944
:105AA0001B021B0A0351802303601378114819431A
:105AB000012311702B700021FEF7B6FEF7BDC04622
:105AC00000040040584400413C4400415944004116
:105AD000000C0040064000005D570000800E0020D2
:105AE000840E0020246080003FF8FFFFFF8FFFFF3F
:105AF00000E100E06C0900200120704710B5036848
:105B0000014A1B6A984710BD13040000FC30006A6C
:105B1000704787239B00C018C36880204000C01ACC
:105B200070470300FC331A6A002A03D0DB69C018EF
:105B3000007D704701204042FBE710B5040000697A
:105B4000FEF7DEFC22000023FC329361D361136276
:105B500087229200A4186360A360E36010BD8723CE
:105B600010B59B00C218D368002BFCD10069FEF76A
:105B7000DEFC10BDF02001403039484248417047FA
:105B8000F0231B011940802306209B0099420AD074
:105B90000133FF330130994205D0802302385B0086
:105BA000994200D0002070470F20014000200129B9
:105BB00003D00239481E8141481C70478B23F0B541
:105BC000182685B002919B000400C05C33000821B8
:105BD0004343324D1700EB18595601F035F8304B5E
:105BE0000821E05C33004343EB18595601F02CF8D0
:105BF0002C4BE25C0393022A09D11133E05CFF28AD
:105C000005D008214643AE19715601F01DF88C26C7
:105C1000B600A05DFF2819D0012100F085FF1822F1
:105C2000A35D21495A43AB56AD18DB0158188D21AD
:105C3000890060501D4901225B188E218900635044
:105C400069688A408F21890062501A600122029B94
:105C500011002069FEF74EFD39002000FFF790FF8C
:105C6000390005002000FFF79FFF390006002000E3
:105C7000FFF780FF33000090290020690122FEF722
:105C80000FFC0B4B2069E25C039BE15CFEF725FCFB
:105C90002069FEF742FC05B0F0BDC0461C84000040
:105CA0002D0200002F02000018440041144400415E
:105CB0002E020000802210B504005200002101F0E5
:105CC0005EF923000022FC335A6020009A60DA60FB
:105CD00010BD0000F0B585B01D000AAB1B780400B4
:105CE00000930BAB1B78160001930CAB1B780F00D5
:105CF00002930DAB1B78039300234360FA239B00B0
:105D00008360124B083303601430FFF7D3FF200089
:105D10002130FF30FFF7CEFF8B236A469B002761BF
:105D2000E6540B4B1278E5540A4B2000E2546A46C5
:105D3000094B1279E2546A46127A0133E2546A46F8
:105D4000127B1033E25405B0F0BDC046F08700006E
:105D50002D0200002E0200002F020000F7B51D00EA
:105D600008AB1B780400009309AB1B781600019365
:105D700000234360FA239B008360114B0F0008331C
:105D800003601430FFF796FF20002130FF30FFF74B
:105D900091FF8B236A469B002761E654094B1278DA
:105DA000E554094B2000E2546A46084B1279E2544C
:105DB0008C22313BFF3B9200A3541032A354FEBD12
:105DC000F08700002D0200002E0200002F020000CC
:105DD000F7B5EFF3108300930123019372B6802689
:105DE0000200FF25019BFC327600013B5C1C0FD0BA
:105DF000D4685F1EB44209D0546801555468013418
:105E00002C405460D4680134D460EEE73B00EDE7E9
:105E100068460193FEF72BFFF7BD13B5EFF3108330
:105E200000930123019372B6019B5A1E0192002B2D
:105E300015D00300FC33DA68002A0DD09A68845C20
:105E40009A680132D2B29A60DA68013ADA6068463A
:105E5000FEF70DFF200016BD01246442F7E7012480
:105E60006846FEF704FF6442F4E710B504000069D9
:105E7000FEF77BFB002805D02069FEF786FB206932
:105E8000FEF778FB2069FEF760FB00281BD0206935
:105E9000FEF77BFB010020001430FFF799FF8C23F5
:105EA0009B00E35CFF2B0ED02300FC331A6A802397
:105EB0005B009B1A092B06DC8D238F229B0092002E
:105EC000E358A2581A602069FEF75AFB00280ED04A
:105ED00087239B00E318DB68002B14D020002130BF
:105EE000FF30FFF79AFFC1B22069FEF752FB20692D
:105EF000FEF730FB002805D02069FEF72FFB206954
:105F0000FEF71FFB10BD2069FEF751FBEFE7000015
:105F1000F8B5040000690D00FEF732FB87239B00F3
:105F2000E618002802D0F368002B34D00127802225
:105F3000F3685200934223D1EFF310833B4210D118
:105F4000174B5B68DB05DB0DF1D0103B5BB2002B20
:105F500010DAF13A1340083B9B08124A9B009B1849
:105F60001B682069FEF70CFB0028E0D02000FFF73B
:105F70007CFFDCE79B08C0330B4A9B009B58F0E793
:105F800020002130FF302900FFF722FF2069FEF7B3
:105F90000AFB0120F8BD29002069FEF7FAFAF8E7AC
:105FA00000ED00E01CED00E000E100E010B50400B1
:105FB0001430FFF732FF8C239B00E35CFF2B0ED0E5
:105FC0002300FC331A6A80235B009B1A0A2B06DD30
:105FD0008E238F229B009200E358A2581A6010BDB6
:105FE000F7B5C31D0193002306000D00041D0093A7
:105FF00021780A22280000F067F92E2107002800E6
:1060000000F0FEF8009B3F18DB190093019B013460
:106010009C42EDD1F17928000A2200F055F9009B4D
:106020001818FEBD024B083303600023436070471D
:106030002488000030B503AC2578044CC5710834C1
:10604000046001714271837130BDC0462488000034
:1060500010B50400034B0422083308C000F086FF8B
:10606000200010BD2488000010B504000422043074
:1060700000F07CFF200010BD034B044A083313607E
:10608000002353607047C04624880000840F00201E
:1060900070B50E0000254468002C0BD02368310039
:1060A0005B6820009847002802DB2D18E468F3E7BE
:1060B00001256D42280070BD70B50D004468002CAC
:1060C00008D0236829009B6820009847002802D147
:1060D000E468F4E7200070BD70B50D004468002C42
:1060E00007D0236829002000DB689847E4682D1852
:1060F000F5E72C7070BD70B50D004468002C08D019
:10610000236829001B6820009847002802D1E46812
:10611000F4E7200070BDF8B542788B790D00017A64
:106120009B18040000208B4222DC6368834219D153
:106130006560002623786A71EA792B719B182370B9
:10614000AB79B34213D9AB68B7006078DF19FFF7BA
:1061500015FB3B68013603606378F6B20133637068
:10616000EEE70B00D9680029FBD1DD60E1E70120F3
:10617000F8BD000070B50126054D064C2B68334272
:1061800003D12000FFF7F2FA2E60200070BDC04658
:106190008C0F0020900F0020F7B506000D000C00BA
:1061A0008B180193019B671B9C4207D033682178B1
:1061B0001B683000984701340028F3D13800FEBD39
:1061C00070B5040008000D0000F0B0FF2368020065
:1061D00029005B682000984770BD10B50B1E02D0E7
:1061E000FFF7EEFF0300180010BD10B503688A68C2
:1061F0005B680968984710BD10B5FFF7EEFF10BD4A
:1062000010B503681B68984710BD0B0010B50A68ED
:10621000010012681800904710BD000010B5024937
:10622000FFF7CEFF10BDC0465972000070B50500E3
:10623000FFF7DBFF04002800FFF7F0FF201870BD18
:1062400070B50400FFF7C9FF05002000FFF7E6FF67
:10625000401970BD70B50500FFF7D7FF0400280096
:10626000FFF7DCFF201870BDF0B58BB06B46150052
:10627000002205330600DA770800012D00D80A2530
:1062800009AC290000F026FECAB21300373307001C
:10629000DBB2092902D813003033DBB2013C237092
:1062A000002FEED121003000FFF797FF0BB0F0BDBB
:1062B00010B5002A04D10368C9B21B68984710BD05
:1062C000D2B2FFF7D1FFFAE710B5FFF7F1FF10BD2B
:1062D00010B504000068002801D000F03DFE200049
:1062E00010BD10B504000068002801D000F034FE95
:1062F00000232360A360636010BD70B504000D002F
:106300000068013100F0ECFE031E01D0012028C41A
:1063100070BD036810B50400002B04D043688B42A5
:1063200001D3012010BD2000FFF7E7FF0028F9D0BE
:10633000A368002BF5D122681370F2E770B50E0048
:10634000110004001500FFF7E4FF002804D120002D
:10635000FFF7C7FF200070BD2A003100A56020684C
:1063600000F004FE00232268A1685354F2E70023E2
:1063700070B504000D00036043608360994207D04C
:10638000080000F0D3FE290002002000FFF7D6FF2E
:10639000200070BD70B5050008000C0000F0C6FEBE
:1063A000210002002800FFF7C9FF70BD70B505008D
:1063B00000680C00002811D0096800290CD0A268E0
:1063C0006B68934208D300F0D1FD0023A2682968CE
:1063D000AA608B54A36070BD00F0BEFD23682B60E3
:1063E00063686B60A368AB60002323606360F1E7C0
:1063F000002310B50400036043608360FFF7D6FFFD
:10640000200010BD10B50B000400884205D00968BB
:10641000002904D09A68FFF791FF200010BDFFF714
:1064200060FFFAE7002310B5040003604360836057
:10643000FFF7E8FF200010BD10B50400884201D02E
:10644000FFF7B4FF200010BD10B50400002903D0F1
:10645000FFF7A0FF200010BDFFF743FFFAE7F7B5F5
:1064600004000F001600002903D1002301930198B6
:10647000FEBD01230193002AF9D08368D5182900B5
:10648000FFF747FF0028F0D02368A268390098186A
:10649000320000F06BFD00222368A5605A55E6E744
:1064A00010B58A680968FFF7DAFF10BD70B50500FE
:1064B00008000C0000F03AFE210002002800FFF75F
:1064C000CEFF70BD002310B5994202D0FFF7EEFF5A
:1064D0000300180010BD07B56B46D97107330122C0
:1064E0001900FFF7BCFF0EBD1FB504000A2208000B
:1064F000694600F079F969462000FFF7D7FF04B03C
:1065000010BD10B58A6809680400FFF7A8FF0028CD
:1065100002D12000FFF7E5FE200010BD10B50400F9
:10652000002904D12000FFF7DCFE200010BDFFF79A
:10653000C9FF0028F6D0F8E710B50400FFF7CBFF3D
:10654000002802D12000FFF7CCFE200010BD10B5BE
:106550000400FFF7C9FF002802D12000FFF7C1FEA9
:10656000200010BD836810B5002B07D10120002941
:1065700003D0087843425841C0B210BD00680029DA
:1065800001D10078F6E700F0C7FDF3E770B5836846
:106590008D685C1B002394420CD30068984209D09C
:1065A0000968994206D080182A0000F0C6FD4342CF
:1065B0004341DBB2180070BD836810B59C468B6800
:1065C00000229C4502D3FFF7E1FF0200100010BD3E
:1065D000836810B5934208D904680968A01800F0D0
:1065E000BDFD002801D0001B10BD01204042FBE78B
:1065F00010B50022FFF7ECFF10BD0000F8B5060053
:106600000F0014001D009A4201D92C001500094901
:106610003000FFF7ACFEBA68A24208D9AA4200D9FE
:106620002A003968121B09193000FFF787FE300075
:10663000F8BDC0465B720000FEE70000034B10B5DA
:106640001B68002B00D0984710BDC0469C0F00204F
:1066500070B50F490F4CA14204D100F0F1F800F0E1
:10666000C7F8FEE70C4D00238D42F6D0CA18E81893
:10667000A24205D3094B8242EFD00949002204E02F
:10668000006804331060F1E704C38B42FCD3E4E7F5
:1066900000000020D400002094880000D4000020D6
:1066A000B40F002010B500F064F8002801D100F00C
:1066B00055F810BD014B18607047C0469C0F002074
:1066C000014B18687047C046A00F0020F7B513486B
:1066D000012284461249134C8E68636805689B0E3C
:1066E0001340019288686268019F920E3A406746A3
:1066F0003F6893420ED1BD420CD186420AD35B194A
:10670000FA254868AD00861B07486B437043000DAF
:10671000C018FEBD3D0013000600E3E7A00F0020F7
:1067200010E000E000ED00E05555000070B5041EDB
:1067300010D0FFF7CBFF050000F01AF8FFF7C6FFF7
:10674000054B401B9842F7D9FA23013C9B00ED18FA
:10675000002CF3D170BDC046E703000010B5034A1A
:1067600013680133136000F0E1FA10BDA00F0020A0
:10677000704700207047F0B50C008BB01600002960
:1067800026D0931E222B2DD80A2A05D1002803DA01
:106790000127404201AD0AE00027FBE7310000F08D
:1067A00099FBCBB2092916D830332B7001352A005A
:1067B0000028F3D101ABAB42F0D02300002F02D070
:1067C0002D21631C217001A98A4206D800221A706B
:1067D00020000BB0F0BD5733E7E7013A117819708C
:1067E0000133F0E70024F3E710B5FFF7C4FF10BD55
:1067F00010B500F0EFF800F081FBFDF7C5FD0120BA
:10680000FFF794FF084C2000FFF7C8F82000FEF7C0
:106810000BFBFBF7FDFCFBF7E9FC044B002BFAD06C
:1068200000E000BFF7E7C046C809002000000000F4
:1068300010B500F087FB10BD10B500F08DFB10BD4A
:106840001E22F0B5504851494368514D93431A00F8
:1068500002231343436008238A691343FE228B619A
:106860002B68D2039B0213404A4A13434A4A93615E
:1068700013000422DC681442FCD00124474A14703F
:106880001678264203D0567876B2002EF8DB012423
:106890009460547864B2002CFBDB414C5460547813
:1068A00064B2002CFBDB8224E4015480547864B28F
:1068B000002CFBDB02249C840E34DE682642FCD0D4
:1068C000384CDC621024DE682642FCD02C68A40E12
:1068D0003F2C00D1203C9E6A334FA4023E403443FB
:1068E0009C629C6A314EA40AA40234439C62304CE0
:1068F000DC6200249C841034DE682642FCD02D4CDF
:106900009C841024DE682642FCD002249E8C3443F2
:106910009C841024DE682642FCD0002494605478C5
:1069200064B2002CFBDB244C5460547864B2002C1D
:10693000FBDB1C6A214E344080261C621C6AB44377
:106940001C62032393601E4B536053785BB2002B91
:10695000FBDB0023FF240B721A4A4B728B72CB7243
:10696000194B1A60194A2B6811689A065B01C90E07
:106970002340520F12020B431343154A1385802301
:10698000426813434360F0BD0040004100040040F2
:10699000246080000606000000080040000C004053
:1069A00001040100B905FF7DFF03FFFFFF010000A7
:1069B00080BB0A1C2405000000070300FFFCFFFF4A
:1069C00003060100006CDC023C0000202060800017
:1069D00000400042FA21314B10B51868890000F0E0
:1069E000F3F92F4B0138984256D82E492E4A486069
:1069F000C020136A00061B021B0A03431362002413
:106A000007238C600B608021136A09061B021B0A96
:106A10000B431362FC22254B196A0A431A62FC22BB
:106A2000196A92010A431A62A022196AD2020A4321
:106A30001A62E0B20021013400F076F81F2CF8D180
:106A40001B4B1C005A7852B2002AFBDB194A5A80B1
:106A5000194B1A00597EC9090129FBD0E421C9004C
:106A600099803F21D970537EDB09012BFBD0C023D5
:106A700000205B011361907000F024F863785BB232
:106A8000002BFBDB0D4B0E4A6380D379DB09012B16
:106A9000FBD04123537010BDFEE7C0463C000020F0
:106AA000FFFFFF0010E000E000ED00E00004004008
:106AB000000C00401E400000004000422140000049
:106AC00000480042164A00B51300517EC909012949
:106AD000FBD00138042816D81969124A0A400F2140
:106AE0001A615A788A4300F065F90308060B03001F
:106AF000110001220A435A7000BD11000322F9E778
:106B000011000222F6E7F02311691B050B430F2148
:106B1000136153788B43190002230B435370EBE747
:106B200000400042FFFFFFF0182330B51D000400B5
:106B300045430820204A55192856013014D003290E
:106B400012D808006343D156D31800F033F9022855
:106B50000E1B5868CB010221184A9B181A184032A4
:106B60001170012282405A6030BD5868CB01062165
:106B7000124A9B181A1840321170012282405A6042
:106B80009A61F1E75868CB0106210C4A9B181A1844
:106B900040321170012282405A605A61E4E758681D
:106BA000CB010221054A9B181A18403211700122AC
:106BB00082409A60D8E7C0461C840000004400412F
:106BC0001823F0B508245843114A13181C570134F0
:106BD0001BD0012635005F688356BD400D4ADB019E
:106BE0009A18906805420BD10C00601E8441D2199E
:106BF0004032107834400336A400B0432043107074
:106C0000044A9B18002901D15D61F0BD9D61FCE73C
:106C10001C84000000440041182310B5082443439D
:106C200007490020CA181457013408D05B5605499B
:106C3000DB015B18186A5368D8400123184010BD67
:106C40001C8400000044004118224243F8B52C4E39
:106C50000300B218127A52B2140001320ED0481C4E
:106C600000240C280AD800F0A5F8072020202020B6
:106C70002020200B0B0B0B00012464422000F8BDE8
:106C8000092905D10021D8B2FFF74EFF0024F5E70E
:106C90000A2902D1D8B20839F6E700240B29EDD130
:106CA000D8B20A39FFF740FFE8E718204343F2184B
:106CB0005568F3562C00134ADB016E0817389B18F1
:106CC000C9B204409E19002C0DD00F243036327802
:106CD000090122401143C9B25B19317040331A785F
:106CE00010431870D2E732000F27303216785B1944
:106CF000BE433143117040331A7810431870BDE71A
:106D00001C8400000044004110B50400FDF7F2FEB1
:106D1000014B1C6010BDC046400000200122024B08
:106D200052421A607047C04640000020164A10B513
:106D30001368591C26D0013B1360002B22D172B678
:106D4000124B134A0433934213D9124A0121100003
:106D5000147D0C42FCD02021148BFF319B085B007A
:106D600021431183D3610C4B13800123027D1A420E
:106D7000FCD0BFF34F8F094B094ADA60BFF34F8F46
:106D8000C046FDE710BDC0464000002000200000C6
:106D9000030200000040004102A5FFFF00ED00E0FB
:106DA0000400FA050B0010B50100180000F098F877
:106DB00010BD000002B4714649084900095C490051
:106DC0008E4402BC7047C046002243088B4274D3F5
:106DD00003098B425FD3030A8B4244D3030B8B42DC
:106DE00028D3030C8B420DD3FF22090212BA030CE5
:106DF0008B4202D31212090265D0030B8B4219D3C6
:106E000000E0090AC30B8B4201D3CB03C01A5241E5
:106E1000830B8B4201D38B03C01A5241430B8B422D
:106E200001D34B03C01A5241030B8B4201D30B0316
:106E3000C01A5241C30A8B4201D3CB02C01A52413D
:106E4000830A8B4201D38B02C01A5241430A8B4200
:106E500001D34B02C01A5241030A8B4201D30B02E9
:106E6000C01A5241CDD2C3098B4201D3CB01C01A03
:106E7000524183098B4201D38B01C01A524143090D
:106E80008B4201D34B01C01A524103098B4201D3FB
:106E90000B01C01A5241C3088B4201D3CB00C01A68
:106EA000524183088B4201D38B00C01A52414308E0
:106EB0008B4201D34B00C01A5241411A00D2014605
:106EC000524110467047FFE701B5002000F006F878
:106ED00002BDC0460029F7D076E770477047C0462C
:106EE00010B5040004481300002804D00A00022052
:106EF000210000E000BF10BD0000000070B50026BA
:106F00000C4D0D4C641BA410A64209D1002600F0C4
:106F10007DF90A4D0A4C641BA410A64205D170BD30
:106F2000B300EB5898470136EEE7B300EB589847AB
:106F30000136F2E7A8000020A8000020A8000020E9
:106F4000D000002010B5034B0100186800F06AF86B
:106F500010BDC0464400002010B5034B0100186866
:106F600000F016F810BDC04644000020002310B504
:106F70009A4200D110BDCC5CC4540133F8E7030041
:106F80001218934200D1704719700133F9E70000DD
:106F900070B50500002910D00C1F2368002B00DA03
:106FA000E418280000F0F3F81D4A1368002B05D1FF
:106FB00063601460280000F0EBF870BDA34209D9AB
:106FC000216860188342F3D118685B68411821601A
:106FD000EEE713005A68002A01D0A242F9D91968D5
:106FE0005818A0420BD1206809185818196082421D
:106FF000E0D110685268411819605A60DAE7A0427F
:1070000002D90C232B60D5E721686018824203D196
:10701000106852684118216062605C60CAE7C0462F
:10702000A40F0020032370B5CD1C9D430835060036
:107030000C2D1ED20C25A9421DD8300000F0A7F857
:10704000254A14682100002919D1244C2368002BFB
:1070500003D1300000F04EF820602900300000F02D
:1070600049F8431C2BD10C233000336000F090F81A
:1070700003E0002DDFDA0C233360002070BD0B68C5
:107080005B1B19D40B2B03D90B60CC18256003E0D4
:107090004B688C420DD11360300000F079F820006D
:1070A00007220B30231D9043C31AE7D05A42E25007
:1070B000E4E763600C00EFE70C004968C3E70323D3
:1070C000C41C9C43A042E1D0211A300000F012F809
:1070D000431CDBD1C7E7C046A40F0020A80F002047
:1070E00010B5034B0A000100186800F052F810BDFB
:1070F00044000020002370B5064C05000800236002
:1071000000F076F8431C03D12368002B00D02B60DD
:1071100070BDC046B00F002002780B78002A03D063
:10712000013001319A42F7D0D01A70470023C25C77
:107130000133002AFBD1581E7047002330B59A4214
:107140000AD0013AC45CCD5CAC4204D1934202D077
:107150000133002CF6D1631B180030BD10B5037845
:10716000002B0FD10B785A4253415B42184010BD9F
:107170000023CA5C002AFAD0C45C944201D10133D6
:10718000F7E701300378002BF2D11800EFE77047E2
:107190007047F8B507000D001600002905D1110051
:1071A000FFF740FF04002000F8BD002A03D1FFF7DD
:1071B000EFFE3400F7E700F012F82C00B042F2D2F4
:1071C00031003800FFF72EFF041EECD029003200FA
:1071D000FFF7CCFE29003800FFF7DAFEE3E70B1FCC
:1071E0001B68181F002B01DA0B58C01870470000ED
:1071F000044A1368002B00D1034B181810601800C4
:107200007047C046AC0F0020B40F0020F8B5C04650
:10721000F8BC08BC9E467047F8B5C046F8BC08BC30
:107220009E467047627574746F6E207072657373DA
:10723000656420696E2066697265737469636B208A
:107240006C6F6F7000474554202F627574746F6EB9
:1072500020485454502F312E310D0A00486F73745A
:107260003A2000436F6E6E656374696F6E3A2063F7
:107270006C6F73650D0A00436F6E6E656374696FA2
:107280006E206661696C6564003139322E313638A2
:107290002E302E3134002A2A2A2A2A2A2A2A2A2A59
:1072A0002A00485454502F312E3120323030204F94
:1072B0004B00436F6E74656E742D747970653A740B
:1072C0006578742F68746D6C00535349443A2000FC
:1072D000495020416464726573733A20000A20208B
:1072E00020203C21444F43545950452068746D6C14
:1072F0003E0A202020203C68746D6C3E0A2020202D
:107300002020203C686561643E0A20202020202047
:1073100020203C7469746C653E496E7465726E65BC
:1073200074204C6F67696E20496E666F726D617470
:10733000696F6E3C2F7469746C653E0A20202020B2
:10734000202020203C7374796C653E0A2020202088
:10735000202020202020626F6479207B0A202020BA
:10736000202020202020202020666F6E742D666152
:107370006D696C793A2043616E646172612C20738F
:10738000616E732D73657269663B0A202020202090
:10739000202020202020206D617267696E3A203005
:1073A0003B0A202020202020202020202020706147
:1073B0006464696E673A20303B0A20202020202038
:1073C0002020202020206261636B67726F756E64DD
:1073D0002D636F6C6F723A20236637663766373BD2
:1073E0000A202020202020202020207D0A2020206C
:1073F000202020202020200A2020202020202020A3
:1074000020202E636F6E7461696E6572207B0A2086
:1074100020202020202020202020206D61726769FC
:107420006E3A2035307078206175746F3B0A2020E9
:10743000202020202020202020206D61782D7769B9
:107440006474683A2036303070783B0A202020205F
:10745000202020202020202070616464696E673A1B
:1074600020323070783B0A2020202020202020204D
:107470002020206261636B67726F756E642D636F8D
:107480006C6F723A20236666663B0A20202020201B
:1074900020202020202020626F726465722D72618E
:1074A000646975733A20313070783B0A20202020BF
:1074B0002020202020202020626F782D73686164B6
:1074C0006F773A20307078203070782031307078C3
:1074D000207267626128302C20302C20302C203024
:1074E0002E32293B0A202020202020202020207D11
:1074F0000A202020202020202020200A20202020B8
:107500002020202020206831207B0A2020202020DD
:1075100020202020202020666F6E742D73697A65EC
:107520003A20333270783B0A20202020202020206F
:1075300020202020746578742D616C69676E3A2074
:1075400063656E7465723B0A202020202020202075
:10755000202020206D617267696E2D626F74746FD8
:107560006D3A20323070783B0A20202020202020E5
:107570002020202020636F6C6F723A202333333336
:107580003B0A202020202020202020207D0A2020AF
:1075900020202020202020200A2020202020202001
:1075A0002020206832207B0A20202020202020203C
:1075B00020202020666F6E742D73697A653A203220
:1075C0003470783B0A2020202020202020202020FA
:1075D000206D617267696E2D626F74746F6D3A20F1
:1075E000313070783B0A20202020202020202020CD
:1075F0002020636F6C6F723A20233535353B0A20AB
:107600002020202020202020207D0A202020202033
:1076100020202020200A2020202020202020202080
:10762000666F726D207B0A202020202020202020E1
:10763000202020646973706C61793A20666C6578EB
:107640003B0A202020202020202020202020666CA3
:1076500065782D646972656374696F6E3A20636F33
:107660006C756D6E3B0A20202020202020202020D9
:1076700020206D617267696E2D626F74746F6D3A50
:1076800020323070783B0A2020202020202020202B
:10769000207D0A202020202020202020200A2020B9
:1076A00020202020202020206C6162656C207B0A35
:1076B0002020202020202020202020206D617267A3
:1076C000696E2D746F703A20313070783B0A20203B
:1076D00020202020202020202020666F6E742D7313
:1076E000697A653A20313670783B0A2020202020C4
:1076F00020202020202020636F6C6F723A202335D9
:1077000035353B0A202020202020202020207D0A03
:10771000202020202020202020200A20202020207F
:107720002020202020696E7075745B747970653D2F
:107730002274657874225D2C0A20202020202020CD
:10774000202020696E7075745B747970653D2270BD
:10775000617373776F7264225D207B0A2020202082
:10776000202020202020202070616464696E673A08
:1077700020313070783B0A2020202020202020203B
:10778000202020626F726465723A206E6F6E653BD6
:107790000A202020202020202020202020626F721C
:1077A0006465722D7261646975733A203570783B37
:1077B0000A20202020202020202020202062616319
:1077C0006B67726F756E642D636F6C6F723A2023F6
:1077D0006637663766373B0A20202020202020208D
:1077E00020202020626F782D736861646F773A20C3
:1077F0003070782030707820357078207267626140
:1078000028302C20302C20302C20302E32293B0ADE
:107810002020202020202020202020206D61726741
:10782000696E2D626F74746F6D3A20323070783BE0
:107830000A202020202020202020202020666F6E7B
:10784000742D73697A653A20313670783B0A2020AE
:1078500020202020202020202020636F6C6F723A8F
:1078600020233333333B0A202020202020202020D7
:10787000207D0A202020202020202020200A2020D7
:107880002020202020202020627574746F6E5B748D
:107890007970653D227375626D6974225D2C0A20D2
:1078A000202020202020202020627574746F6E5BC1
:1078B000747970653D22627574746F6E225D207BF1
:1078C0000A20202020202020202020202062616308
:1078D0006B67726F756E642D636F6C6F723A2023E5
:1078E0003030376266663B0A20202020202020208E
:1078F00020202020636F6C6F723A20236666663BFF
:107900000A202020202020202020202020706164B8
:1079100064696E673A20313070783B0A202020205D
:107920002020202020202020626F726465723A207F
:107930006E6F6E653B0A2020202020202020202012
:107940002020626F726465722D7261646975733A8A
:10795000203570783B0A2020202020202020202065
:107960002020666F6E742D73697A653A2031367007
:10797000783B0A2020202020202020202020206367
:107980007572736F723A20706F696E7465723B0A1C
:107990002020202020202020202020207472616EB2
:1079A000736974696F6E3A206261636B67726F7599
:1079B0006E642D636F6C6F7220302E33732065619F
:1079C00073652D696E2D6F75743B0A202020202071
:1079D0002020202020202077696474683A203130EC
:1079E00030253B0A2020202020202020202020207D
:1079F0006D617267696E2D746F703A2031307078E6
:107A00003B0A202020202020202020207D0A20202A
:107A100020202020202020200A202020202020207C
:107A2000202020627574746F6E5B747970653D22DE
:107A30007375626D6974225D3A686F7665722C0A9F
:107A400020202020202020202020627574746F6E5A
:107A50005B747970653D22627574746F6E225D3A55
:107A6000686F766572207B0A20202020202020204D
:107A7000202020206261636B67726F756E642D63D6
:107A80006F6C6F723A20233030363964393B0A20EC
:107A90002020202020202020207D0A20202020209F
:107AA00020202020200A20202020202020202020EC
:107AB00070207B0A20202020202020202020202031
:107AC0006D617267696E3A203130707820303B0A00
:107AD000202020202020202020202020666F6E746F
